:020000040000FA
:100000000A128A11FC2F00308A000408840A820731
:10001000003442346C347534653474346F346F3466
:1000200074346834203449346E3469347434693437
:1000300061346C3469347A34653464342034613426
:100040006E34643420345234653461346434793429
:1000500000345034723465347334733420343034A3
:10006000203474346F3420347434753472346E3404
:1000700020344F344634463420344C3445344434F0
:100080000034503472346534733473342034313472
:10009000203474346F3420347434753472346E34D4
:1000A00020344F344E3420344C34453444340034FE
:1000B0004C344534443420347434753472346E34E2
:1000C0006534643420344F344634463400344C3480
:1000D0004534443420347434753472346E346534A9
:0A00E000643420344F344E340034F1
:100E5600F00070088312031399000C1E332F342FF1
:100E6600302F83160313981C392F3A2F342F08007E
:100E76000D308312031399000D30F200AF30F100EC
:100E8600B630F000F00B452FF10B452FF20B452F36
:100E96000000080083120313981C522F532F552F5E
:100EA600181218168C1E582F592F5F2F8C1E5C2F68
:100EB6005D2F592F1A08602F003008008316031380
:100EC6000717871718158130990018128312031314
:100ED60098171813831603131813981683120313FF
:100EE60018168B170B17831603138C160C1608008F
:100EF600F2008D2F720884000A128A1103200A124A
:100F06008A110A128A112B270A128A110130F1005E
:100F16007108F207720884000A128A1103200A1265
:100F26008A11003A031D982F992F7D2F08008316EA
:100F3600031386110A128A1161270A128A110130D7
:100F46000A128A117B270A128A110A128A113B2772
:100F56000A128A1139300A128A117B270A128A115B
:100F66000A128A113B270A128A1121300A128A11A3
:100F76007B270A128A110A128A113B270A128A1142
:100F86000A128A114D270A128A11F300F401730816
:100F9600F5007408F600303075067604031DD42F6C
:100FA600D52FE32F83120313861150300A128A11AC
:100FB6007B270A128A110A128A113B270A128A1102
:100FC600313075067604031DE92FEA2FC32F8312ED
:100FD600031386155F300A128A117B270A128A11BB
:100FE6000A128A113B270A128A11C32F0A128A1182
:0A0FF600002883010A128A119A2FC5
:02400E003A3F37
:00000001FF
